:020000040800F2
:1000000000000220E5110008FD080008FF080008B4
:1000100001090008030900080509000800000000A4
:1000200000000000000000000000000007090008B8
:1000300009090008000000000B0900080D0900086C
:100040003512000835120008351200083512000874
:100050003512000835120008351200083512000864
:100060003512000835120008351200083512000854
:100070003512000835120008351200083512000844
:100080003512000835120008351200083512000834
:100090003512000835120008351200083512000824
:1000A0003512000835120008351200083512000814
:1000B0003512000835120008351200083512000804
:1000C00035120008351200083512000835120008F4
:1000D00035120008351200083512000835120008E4
:1000E00035120008351200083512000835120008D4
:1000F00035120008351200083512000835120008C4
:1001000035120008351200083512000835120008B3
:1001100035120008351200083512000835120008A3
:100120003512000835120008351200083512000893
:100130003512000800000000000000003512000821
:100140003512000835120008351200083512000873
:100150003512000835120008351200083512000863
:100160003512000835120008351200083512000853
:100170003512000835120008351200080000000092
:100180000000000035120008000000000000000020
:1001900035120008000000000000000035120008C1
:1001A0000000000000000000000000003512000800
:1001B0003512000835120008351200083512000803
:0401C00035120008EC
:1001C40010B5054C237833B9044B13B10448AFF38D
:1001D40000800123237010BD2800002000000000CF
:1001E4009012000808B5034B1BB103490348AFF351
:1001F400008008BD000000002C00002090120008C0
:100204007BB972B90029BEBF00204FF0004106E05F
:1002140008BF00281CBF6FF000414FF0FF3000F012
:10022400D3B9ADF1080C6DE904CE002909DB002B2C
:100234001ADB00F04DF8DDF804E0DDE9022304B038
:100244007047404261EB4101002B1BDB00F040F89A
:10025400DDF804E0DDE9022304B0404261EB410132
:10026400524263EB43037047524263EB430300F093
:100274002FF8DDF804E0DDE9022304B0404261EB2D
:1002840041017047524263EB430300F021F8DDF86B
:1002940004E0DDE9022304B0524263EB43037047F8
:1002A40053B94AB9002908BF00281CBF4FF0FF31D9
:1002B4004FF0FF3000F088B9ADF1080C6DE904CEC1
:1002C40000F006F8DDF804E0DDE9022304B070472D
:1002D4002DE9F047089D8E4604468846002B4AD1F6
:1002E4008A42174662D9B2FA82F64EB1C6F12003A9
:1002F40001FA06F820FA03F3B74043EA0808B440C9
:100304004FEA174E1FFA87FCB8FBFEF1230C0EFBD5
:10031400118843EA084301FB0CF29A4209D9FB18FD
:1003240001F1FF3080F0EA809A4240F2E78002391E
:100334003B449A1AA3B2B2FBFEF00EFB102243EA2E
:10034400024300FB0CFC9C4509D9FB1800F1FF3269
:1003540080F0D6809C4540F2D3803B44023840EA8A
:100364000140A3EB0C0300211DB1F3400022C5E9B9
:100374000032BDE8F0878B4205D90DB1C5E9000113
:1003840000210846F5E7B3FA83F1002946D1734505
:1003940002D3824200F20581841A6EEB030201202B
:1003A4009046002DE5D0C5E90048E2E7002A00F0B8
:1003B4009080B2FA82F6002E40F0A4808A1A030CD0
:1003C4004FEA174E80B2BCB20121B2FBFEFC0EFB19
:1003D4001C2243EA024304FB0CF29A4207D9FB189D
:1003E4000CF1FF3802D29A4200F2E080C4469B1A14
:1003F400B3FBFEF20EFB123340EA034302FB04F4A8
:100404009C4207D9FB1802F1FF3002D29C4200F251
:10041400CA8002461B1B42EA0C40A5E7C1F1200634
:100424008B4022FA06F71F430EFA01F420FA06F372
:100434002EFA06FE4FEA1749234300FA01F81FFA81
:1004440087FCBEFBF9F01C0C09FB10EE44EA0E44D9
:1004540000FB0CFEA64502FA01F209D93C1900F191
:10046400FF3A80F09C80A64540F2998002383C44D3
:10047400A4EB0E041FFA83FEB4FBF9F309FB134447
:100484004EEA044403FB0CFCA44508D93C1903F1CF
:10049400FF3E80F08280A4457FD9023B3C4443EA7E
:1004A4000040A4EB0C04A0FB02EC64457346E14657
:1004B40062D35FD05DB1B8EB030264EB090404FAC4
:1004C40006F622FA01F31E43CC40C5E9006400217C
:1004D4004FE7B1FBF2FC010C41EA0E4180B240EA65
:1004E40001423B4638463C46B846BE462026B1FB50
:1004F400F7F1A2EB080241EA0C4166E7014618E76E
:1005040010462CE7C6F120022EFA02F3B740B140A0
:1005140020FA02F24FEA174E0A43B3FBFEF8BCB2CC
:100524000EFB1833110C41EA034108FB04F9B040F7
:1005340089454FEA104380B23ED9791808F1FF3C4F
:1005440001D289451FD8A1EB0901B1FBFEF909FBD2
:1005540004F80EFB191192B242EA0142424529D233
:10056400BA1809F1FF31C4D24245C2D2A9F102013D
:100574003A44BEE7F0459DD2BEEB02036CEB070C98
:100584000138E14696E7A7EB09094944A8F1020CB2
:10059400B1FBFEF909FB04F8DBE773467FE750463D
:1005A40066E70846FDE63B44023A33E7ACF1020C49
:1005B4003B441CE749469CE7A1EB0901C446B1FB57
:1005C400FEF909FB04F8C4E7704700BF2DE9F04FBA
:1005D4004FF000088FB0CDE90201CDE906880992F9
:1005E400CDF81480CDF80080009B039A934280F2EA
:1005F4008F804FF0000BCDF810B0CDF804B032E08E
:10060400029A0499D3175846FFF7FAFD434B039A0D
:10061400C3180A9361F100030B930599D31740465D
:10062400FFF7EEFD3E4BC3184FF000070C9361F14A
:1006340000030D933D463E4638463946099B9F428A
:1006440021DB069BFB180693079B43EBE773079399
:10065400019B01330193334B1BEB03039B46049B28
:1006640043F100030493DDE901329342C8DB009BAC
:10067400013300932C4B18EB03039846059B43F17D
:1006840000030593B0E700FB01F3A0FB0049A5FBC1
:10069400052A09EB430905FB06F30AEB430A234B3E
:1006A4000892A21849EB0A0C93424FF0000373EB33
:1006B4000C03C6DB464305FB0166A0FB05052E447F
:1006C400194D1B4AA0FB050105FB06110023FFF78A
:1006D40097FD0C9B164A1D180D9B204643EB010603
:1006E40000234946FFF78CFD4FF0FF33044689464B
:1006F4000B4A08985146FFF783FD0A9B241849EBDF
:100704000109E0180B9B07F1010743EB090195E789
:10071400DDE906010FB0BDE8F08F00BF60DAD9FF54
:10072400C0BDF0FFE067350080841E0000093D0075
:1007340040420F0000B593B03022002106A800F01B
:1007440078FD14220021684600F073FD0223012184
:10075400059305A81023CDE9081300F0D5F9014647
:1007640008B172B6FEE70723CDE90030CDE90200F7
:10077400684600F0E7F808B172B6FEE713B05DF81A
:1007840004FB0000074AD2F8FC3043F08073C2F83F
:10079400FC30054B1A6842F001021A6000225A60CC
:1007A400704700BF00ED00E0001000E02DE9F04FBD
:1007B4008BB000F0CBFCFFF7BDFF142200210DEB42
:1007C400020000F036FD00243E4B03941A6B3E48B1
:1007D4003E4E3F4FDFF81081DFF81091DFF810A193
:1007E400394D42F002021A631A6B02F002020392BC
:1007F400039A04941A6B42F001021A631B6B03F010
:100804000103049322460321049B00F01DFC0322F0
:1008140001232D4805A9CDE90523CDE9074400F0BE
:1008240041FBFFF7AFFFD9F80030A34200DCFEE73D
:1008340056F8043B019303FB03F247F8042B01220F
:1008440011462846CAF8004000F0FEFB00F0A4FC64
:10085400DFF8A0B0019B1F4ACBF8000012681946CC
:100864001846FFF7B3FE1C4BC3E9000100F094FCEB
:100874001A4A194B1060DBF80020801A184A48F80D
:10088400040B1060D3E90001164A02EBC402C2E96A
:10089400000101220221284600F0D6FB4FF47A70B1
:1008A40000F080FC00220121284600F0CDFB00224C
:1008B4000221284600F0C8FB4FF4FA7000F072FCE5
:1008C4000134B0E700380240000402400800002070
:1008D4007000002000000020A800002098000020E4
:1008E400A000002048000020840000200400002014
:1008F400440000209C000020FEE7FEE7FEE7FEE740
:10090400FEE770477047704700F03ABC82B00C4B6A
:10091400002100915A6C42F480425A645A6C02F4E9
:1009240080420092009A01911A6C42F080521A643B
:100934001B6C03F080530193019B02B0704700BF0E
:10094400003802402DE9F0410D46044610B901205B
:10095400BDE8F081434B1A6802F00F028A4228D3A3
:1009640021688F072DD4C80740D43E4B1A6802F083
:100974000F02AA4265D8226851076BD4130707D522
:10098400394A2169936823F4604343EAC1039360BD
:1009940000F072F8344B354A9B68C3F30313D35CFD
:1009A400D840334B1860334B186800F0ABFB002081
:1009B400CEE7CAB21A701B6803F00F038B42C6D18C
:1009C400CEE7294B11F0040F1EBF9A6842F4E0529F
:1009D4009A600E0742BF9A6842F460429A609A682D
:1009E400A06822F0F00202439A60BCE762681E4BE2
:1009F400012A1CD11B6813F4003FA8D01A4EB36817
:100A040023F003031343B36000F0C6FB41F28838BC
:100A14000746B368626803F00C03B3EB820FA4D0FB
:100A240000F0BAFBC01B4045F3D9032090E7911EA8
:100A340001291B6802D813F0007FDEE713F0020FD0
:100A4400DBE7EAB21A701B6803F00F03AB427FF4D2
:100A54007EAF90E70449E0688B6823F4E0530343D6
:100A64008B608BE7003C024000380240A81200086B
:100A74002400002020000020204908B58B6803F0E2
:100A84000C03082B07D00C2B20D01D481D4A042B27
:100A940018BF104608BD4A684B68496813F48003C0
:100AA40014BF17481748C1F3881118BF002302F078
:100AB4003F02A1FB0001FFF7F3FB104B5B68C3F39C
:100AC400014301335B00B0FBF3F0E3E74A684B6892
:100AD400496813F4800314BF09480A48C1F3881114
:100AE40018BF002302F03F02A1FB0001FFF7D8FB6F
:100AF400024B5B68C3F30273E5E700BF00380240B2
:100B040040787D010024F4002DE9F34104460028D7
:100B140031D00368DF0710D423689E0767D42368A5
:100B2400190700F1B28023685A0700F1D280A36943
:100B3400002B40F03981002034E0984B9A6802F091
:100B44000C02042A10D09A6802F00C02082A02D17E
:100B54005B685D0208D4914B9A6802F00C020C2A7F
:100B64000BD15A68510208D58C4B1B689A03D3D514
:100B74006368002BD0D1012014E06268B2F5803F95
:100B840013D11A6842F480321A6000F005FB834ED8
:100B9400054633689B03BFD400F0FEFA401B64286B
:100BA400F7D9032002B0BDE8F0817C4DB2F5A02F47
:100BB4002B6807D143F480232B602B6843F48033E4
:100BC4002B60E2E723F480332B602B6823F480232B
:100BD4002B60002AD9D100F0DFFA06462B689F0368
:100BE4009AD500F0D9FA801B6428F7D9D9E76B4B62
:100BF4009A6812F00C0F10D09A6802F00C02082ABE
:100C040002D15B685E0208D5644A936803F00C0362
:100C14000C2B11D153685D020ED4604A13689907F6
:100C240002D5E368012BA6D11368216923F0F803E8
:100C340043EAC103136072E7E268594BB2B101227F
:100C44001A6000F0A9FA554D06462B689B0707D594
:100C54002B68226923F0F80343EAC2032B605EE7A2
:100C640000F09AFA801B0228EFD99AE71A6000F084
:100C740093FA4A4E054633689F077FF550AF00F05C
:100C84008BFA401B0228F6D98BE76269444B82B188
:100C94000122C3F8802E00F07FFA404E0546736FA0
:100CA4009B073FF540AF00F077FA401B0228F6D9C6
:100CB40077E7C3F8802E00F06FFA384E0546736F5D
:100CC4009F077FF530AF00F067FA401B0228F6D982
:100CD40067E7324B1A6C12F0805228D101921A6CD9
:100CE40042F080521A641B6C03F080530193019B01
:100CF40001272C4D2B68D8051BD5A368274D012B44
:100D040027D12B6F43F001032B6700F045FA234EE4
:100D1400054641F28838336F9A0739D5002F3FF4DE
:100D240006AF1E4A136C23F080531364FFE60027BA
:100D3400DFE72B6843F480732B6000F02DFA06463E
:100D44002B68D905D9D400F027FA801B0228F7D9DB
:100D540027E7052B04D12B6F43F004032B67D0E75F
:100D64002A6F22F001022A672A6F22F004022A67FE
:100D7400002BCAD100F010FA41F2883806462B6FD6
:100D84009B07CBD500F008FA801B4045F7D908E74C
:100D940000F002FA401B4045BDD902E7003802408A
:100DA40000004742007000403C4DAA6802F00C026B
:100DB400082A41D0022B3A4B4FF000021A662ED17A
:100DC40000F0EAF906462B68990122D4D4E90732E7
:100DD4001343626A43EA8213E26A43EA0263226BC0
:100DE40043EA0273A26A5208013A43EA02436B607F
:100DF4002B4B2A4D01221A6600F0CEF904462B68CB
:100E04009A013FF598AE00F0C7F9001B0228F6D905
:100E1400C7E600F0C1F9801B0228D4D9C1E600F06E
:100E2400BBF904462B689B017FF585AE00F0B4F94D
:100E3400001B0228F6D9B4E6012B3FF49CAE6B6884
:100E4400E26903F4800191427FF495AE216A03F0D4
:100E54003F028A427FF48FAE616A47F6C0721A403D
:100E6400B2EB811F7FF487AEA26A520803F44031CB
:100E7400013AB1EB024F7FF47EAEE16A03F0706297
:100E8400B2EB016F7FF477AE226B03F0E043B3EB78
:100E9400027F14BF0120002084E600BF0038024016
:100EA400000047422DE9F74FDFF89891634A002389
:100EB4000D6801249C4004EA0506AC4340F0AB8075
:100EC4004D68032705F003044FEA430807FA08FCBA
:100ED400671E012F6FEA0C0C34D8876807EA0C0EE2
:100EE400CF6807FA08F747EA0E078760476827EADA
:100EF400060EC5F300179F4047EA0E074760C76810
:100F040007EA0C0E8F6807FA08F747EA0E07022C67
:100F1400C76019D14FEAD30A00EB8A0A03F0070B22
:100F2400DAF820704FEA8B0B4FF00F0E0EFA0BFE1F
:100F340027EA0E0E0F6907FA0BF747EA0E07CAF8FD
:100F4400207001E0032CDAD1076804FA08F407EAF8
:100F54000C073C4315F4403F04605CD0002401942A
:100F6400D9F8444044F48044C9F84440D9F8444092
:100F740023F0030707F1804704F4804407F59C3706
:100F8400019403F0030C019CD7F808E04FEA8C0CA1
:100F94000F2404FA0CF42EEA040E294CA04241D08A
:100FA40004F58064A0423FD004F58064A0423DD0A3
:100FB40004F58064A0423BD004F58064A04239D09B
:100FC40004F58064A04237D004F58064A04214BFC5
:100FD4000724062404FA0CF444EA0E04BC60946862
:100FE400F74315F4801F0CBF3C4034439460D4682D
:100FF40015F4001F0CBF3C403443D460546815F40E
:10100400003F0CBF3C40344354601468ED0354BFAC
:101014003C40344314600133102B7FF449AF03B0D8
:10102400BDE8F08F0024D5E70124D3E70224D1E7FB
:101034000324CFE70424CDE70524CBE7003C01409B
:1010440000000240003802400AB18161704709047F
:10105400FBE700000749CA6822F4E06203021204B5
:1010640003F4E063120C134343F0BF6343F400330F
:10107400CB60704700ED00E0164B30B5DC68C4F37C
:101084000224C4F10703251D042B28BF0423062DC5
:101094004FF0FF358CBF033C002405FA03F321EA2B
:1010A4000303A54022EA0502A340002843EA020301
:1010B400ACBF00F16040084A4FEA0313B8BF00F028
:1010C4000F00DBB2AABF00F56140135480F800336F
:1010D40030BD00BF00ED00E014ED00E00138B0F1D8
:1010E400807F0BD24FF0E023054A5861F02182F84B
:1010F40023100020072298611A617047012070476D
:1011040000ED00E038B50E4B1A784FF47A73B3FB58
:10111400F2F30C4A05461068B0FBF3F0FFF7DEFF6C
:10112400044658B90F2D09D8024629464FF0FF301E
:10113400FFF7A2FF044B20461D6038BD0120FCE7E9
:101144001C000020240000202000002008B50B4BC8
:101154001A6842F400721A601A6842F480621A60D3
:101164001A6842F480721A600320FFF773FF0F209D
:10117400FFF7C8FFFFF7CAFB002008BD003C024090
:10118400034A044B11681B780B441360704700BF7B
:10119400B00000201C000020014B1868704700BFFD
:1011A400B000002038B50446FFF7F6FF631C1CBFEF
:1011B400054B1B78054618BFE418FFF7EDFF431BEA
:1011C400A342FAD338BD00BF1C000020034AD2F862
:1011D400883043F47003C2F88830704700ED00E0B3
:1011E400DFF834D0FFF7F2FF0C480D490D4A002315
:1011F40002E0D458C4500433C4188C42F9D30A4AC8
:101204000A4C002301E013600432A242FBD300F035
:1012140019F8FFF7CBFA7047000002200000002005
:1012240028000020C812000828000020B400002074
:10123400FEE702440346934200D1704703F8011BC2
:10124400F9E7000070B50D4D0D4C641BA410002689
:10125400A64209D10B4D0C4C00F018F8641BA410E5
:101264000026A64205D170BD55F8043B98470136C7
:10127400EEE755F8043B98470136F2E7C012000840
:10128400C0120008C0120008C4120008F8B500BF5C
:10129400F8BC08BC9E467047F8B500BFF8BC08BC53
:0412A4009E467047AB
:1012A800000000000000000001020304060708090E
:0812B8001CF0FF7F01000000A3
:0412C000E901000838
:0412C400C501000858
:1012C800640000000500000080000000A00000008D
:1012D800C0000000E0000000000100000100000064
:0812E800100000000024F400D6
:04000005080011E5F9
:00000001FF
