:020000040800F2
:10000000002000203D100008F5070008F707000851
:1000100000000000000000000000000000000000E0
:10002000000000000000000000000000F9070008C8
:100030000000000000000000FB070008FD070008AA
:100040008D1000088D1000088D1000088D1000081C
:100050008D1000088D1000088D1000088D1000080C
:100060008D1000088D1000088D1000088D100008FC
:100070008D1000088D1000088D1000088D100008EC
:100080008D1000088D100008000000008D10000881
:100090008D1000088D1000088D1000088D100008CC
:1000A0008D1000088D1000088D1000088D100008BC
:1000B0008D100008000000008D10000800000000F6
:1000C00010B5064C2378002B07D1054B002B02D02E
:1000D000044800E000BF0123237010BD2000002071
:1000E00000000000E8100008044B10B5002B03D0FE
:1000F0000349044800E000BF10BDC04600000000F6
:1001000024000020E8100008002243088B4274D32A
:1001100003098B425FD3030A8B4244D3030B8B4208
:1001200028D3030C8B420DD3FF22090212BA030C11
:100130008B4202D31212090265D0030B8B4219D3F2
:1001400000E0090AC30B8B4201D3CB03C01A524112
:10015000830B8B4201D38B03C01A5241430B8B425A
:1001600001D34B03C01A5241030B8B4201D30B0343
:10017000C01A5241C30A8B4201D3CB02C01A52416A
:10018000830A8B4201D38B02C01A5241430A8B422D
:1001900001D34B02C01A5241030A8B4201D30B0216
:1001A000C01A5241CDD2C3098B4201D3CB01C01A30
:1001B000524183098B4201D38B01C01A524143093A
:1001C0008B4201D34B01C01A524103098B4201D328
:1001D0000B01C01A5241C3088B4201D3CB00C01A95
:1001E000524183088B4201D38B00C01A524143080D
:1001F0008B4201D34B00C01A5241411A00D2014632
:10020000524110467047FFE701B5002000F006F8A4
:1002100002BDC0460029F7D076E770477047C04658
:10022000002B15D1002A13D1002906DB01DC0028A0
:1002300006D00020C043410802E0802109060020CA
:1002400007B4024801A14018029003BDD1FFFFFF8F
:1002500003B4684601B5029800F034F8019B9E464D
:1002600002B00CBC7047C046F0B5CE469946030CB0
:100270009C46130447461B0C1D000E0061460404F7
:10028000240C80B50700100C4B4365434143604389
:100290002C0CC01824188C46A34203D980235B027F
:1002A0009846C444494679435643230C2D042D0CEB
:1002B0008919634424046019C918C0BCB946B04602
:1002C000F0BDC046F8B5CE46474680B59146984643
:1002D00004000D0000F03EF807000E0002000B00C5
:1002E00048464146FFF7C0FF241A8D41089B38005D
:1002F00031001C605D60C0BCB946B046F8BDC04668
:100300001C2101231B04984201D3000C10391B0A45
:10031000984201D3000A08391B09984201D3000909
:10032000043902A2105C40187047C0460403020260
:1003300001010101000000000000000010B50029CB
:1003400003D1FFF7DDFF203002E00800FFF7D8FF00
:1003500010BDC046F0B54F464646D646C0B506006D
:100360000F001000190082B0002F5DDB34003D004B
:10037000002B0BDB16001F00AB4217D90020002119
:1003800002B0E0BCBA46B146A846F0BD00274642DE
:100390008F41AF42F2D800D1A0E001235B429946E1
:1003A00009E0002746428F41AF42E7D8AF4200D173
:1003B00090E00023994639003000FFF7BFFF8046E8
:1003C00029002000FFF7BAFF43461B1A9846203B3E
:1003D00075D4310099409A460B0031004046814067
:1003E0000A00AB422ED82BD05146A41A9D410029B9
:1003F00000DA90E000210020012600900191514692
:100400008E400196414601268E40414600960029C5
:100410001FD1009801994B46002BB1D003000C006E
:1004200000215842A141ABE700257442BD41002B99
:10043000B7DB16001F00AB42A0D8AF42ADD14DE0F4
:10044000A142D1D90021002000900191414600290C
:10045000DFD0D90756085F080E4343460EE0AF428F
:1004600001D1A6420CD8A41BBD41012124196D4124
:100470000022013B64185541002B06D0AF42EED953
:10048000013B24196D41002BF8D1009A019B514684
:1004900012196B41002925DB2E002C00CE4041466D
:1004A000CC40514600292DDB34008C4021004446CD
:1004B000A6403000121A8B4100920193A9E74246F0
:1004C00038009A462023310090409B1AD9400300FF
:1004D0000B4382E7A64200D950E76AE7A64200D85C
:1004E0005BE74BE740462021091A28008840260098
:1004F00001004046C6402C000E434146CC405146C8
:100500000029D1DA4046202135008440091ACD4027
:1005100021002943CBE7414620260127761A0020F7
:100520000021F7400090019101976BE7F0B500239F
:10053000002497B0089309940593002400230A939C
:100540000B940D9014911592059B149A934200DB25
:100550009AE0002300240C93069307943CE00D9B43
:100560000D9ADB17012406980799FFF759FE484BAF
:1005700064421B184C410898099910931194149BDC
:100580000124DB17149AFFF74BFE424B64421B1801
:100590004C410026002712931394002334003D00A1
:1005A0000493049B159A934226DB049B0E93DB175E
:1005B0000F930E990F9A0A9B0B9C5B185441069857
:1005C00007990A930B940C9B334A01330C93002335
:1005D00080185941069007910C9B0D9A9342BEDBFF
:1005E00008980999059B2D4A01330593002380182B
:1005F000594108900991A7E722002B00200029000B
:10060000FFF732FE32003B000090019130003900CC
:10061000FFF72AFE009A019B02900391029803992A
:1006200012184B411100002BBFDC02D11C4B994228
:10063000BBD832003B0020002900FFF715FE002345
:10064000164AFFF711FE0023164AFFF7E9FD129E36
:10065000139F0023134A36184F4100980199FFF762
:10066000DFFD012304000D0002980399094A5B4253
:10067000FFF7D6FD109A119B24184D41A4185D4137
:10068000049B013304938CE70A980B9917B0F0BDD3
:1006900060DAD9FFC0BDF0FFE067350080841E003E
:1006A00000093D0040420F0010B5102490B02C22EC
:1006B000002105A800F0EBFC00212200684600F0B4
:1006C000E6FC022304A80493013B0793089400F07E
:1006D000B1F8011E01D072B6FEE707230190029027
:1006E00003906846009300F0C9FA002801D072B662
:1006F000FEE710B010BD0000F0B589B000F066FB59
:10070000FFF7D2FF1422002103A800F0C0FC8021D3
:10071000324BC9025A6932480A435A615A69002465
:100720000A4080210192019A5A6989020A435A615A
:100730005B6900220B4002930321029B012500F01C
:1007400031FC0323264803A90393049505940694DA
:1007500000F070FB9020234B2A002900C0051F5990
:1007600000F020FC00F04EFB642206003900380047
:10077000FFF7DCFE1C4A63009B181860596000F00C
:1007800041FB1A4B801B1851902000222900C00504
:1007900000F008FCFA200434400000F039FB142C6F
:1007A000D8D1012290201100C00500F0FBFB902061
:1007B00001220221C00500F0F5FB0D4800F028FBE6
:1007C000902000220121C00500F0ECFB90200022C7
:1007D0000221C00500F0E6FBFEE7C0460010024023
:1007E00000040048000000204000002068000020B5
:1007F000B80B0000FEE7FEE77047704710B500F049
:10080000F5FA10BD01210A4B82B09A690A439A6138
:100810009A690A4080210092009ADA6949050A43E0
:10082000DA61DB690B400193019B02B07047C0465F
:1008300000100240F0B5040085B0002845D00368E0
:10084000DB072FD423689B0700D581E023681B07B3
:1008500000D5BCE023685B0700D5DFE02368DB063A
:100860001AD562690423B44D012A00D048E1696BAE
:1008700002270B436B636B6B1A436A6300F0C2FA87
:1008800006006B6B3B4200D133E1F8216A6BA36930
:100890008A43DB0013436B63236A002B00D057E1CC
:1008A00000202AE00C22A44D6B681340042B06D0D4
:1008B0006B681340082B0AD16B68DB0307D52B68E4
:1008C0009B03BFD56368002BBCD1012015E0636892
:1008D000012B14D180232A685B0213432B6000F0A4
:1008E00091FA80270600BF022B683B42AAD100F094
:1008F00089FA801B6428F7D9032005B0F0BD002BCE
:1009000016D12B688D4A802713402B602B688C4AA8
:10091000BF0213402B6000F075FA06002B683B42C3
:1009200000D18FE700F06EFA801B6428F6D9E3E768
:10093000052B05D180232A68DB0213432B60C9E70E
:100940002B687E4A13402B602B687D4A1340C5E715
:100950000C22794D6B68134206D06B681340082B4C
:1009600010D16B68DB030DD42B689B0702D5E368BD
:10097000012BAAD1F8212A6823698A43DB0013439B
:100980002B6063E7E2680123002A0FD02A68022760
:1009900013432B6000F036FA06002B683B42E9D186
:1009A00000F030FA801B0228F7D9A5E72A68022751
:1009B0009A432A6000F026FA06002B683B4200D1D9
:1009C00044E700F01FFA801B0228F6D994E7E26999
:1009D0000123594D002A10D06A6A022713436B6223
:1009E00000F010FA06006B6A3B4200D032E700F0DC
:1009F00009FA801B0228F6D97EE76A6A02279A4321
:100A00006A6200F0FFF906006B6A3B4200D121E701
:100A100000F0F8F9801B0228F6D96DE7802200214A
:100A2000454D5205EB690091134208D1EB69134320
:100A3000EB61EB6913400393039B01230093802731
:100A4000404E7F0033683B4215D0A368012B22D172
:100A50002A6A13432B6200F0D5F9022706002B6A9D
:100A60003B423FD0009B012B00D0F7E6EB69364AB2
:100A70001340EB61F2E633683B43336000F0C2F9A8
:100A8000019033683B42E0D100F0BCF9019BC01AF1
:100A90006428F6D930E70122002B14D12B6A0227F3
:100AA00093432B622B6A033293432B6200F0AAF923
:100AB00006002B6A3B42D5D000F0A4F9234B801BE3
:100AC0009842F6D918E7052B05D1296A013B0B435B
:100AD0002B622B6ABDE72B6A934304222B622B6A9D
:100AE0009343B7E700F08EF9184B801B9842B6D9B4
:100AF00002E700F087F9801B022800D8C1E6FBE678
:100B0000053203D16A6B9A436A63BEE66A6B0227B9
:100B1000134301226B636B6B93436B6300F072F9B9
:100B200006006B6B3B4200D1B6E600F06BF9801B10
:100B30000228F6D9E0E6C04600100240FFFFFEFFA3
:100B4000FFFFFBFF00700040FFFFFFEF8813000076
:100B50000C21344D6A680A40082A47D0324A022BD9
:100B600032D12B68802713402B6000F04BF9060030
:100B7000BF042B683B4221D10F22EB6A80269343AE
:100B8000E26AB6041343EB62616AA36A6A680B43C4
:100B900026490A4013436B6080232A685B04134391
:100BA0002B6000F02FF904002B68334200D077E669
:100BB00000F028F9001B0228F6D99DE600F022F982
:100BC000801B0228D5D997E62B68802613402B601E
:100BD00000F018F90400B6042B68334200D15FE638
:100BE00000F010F9001B0228F6D985E6012B00D190
:100BF0006BE680226868616A5202EB6A02408A42B0
:100C000000D062E60F221340E26A934200D05CE615
:100C1000F0239B031840A36AC01A431E9841C0B238
:100C20006BE6C04600100240FFFFFFFEFFFFC2FF61
:100C30000C2270B50C4D6B681A40082A11D10F2098
:100C40000A499A0C02408C5CEA6ADB0307D5084922
:100C50000240895C0748FFF757FA604370BD0648B9
:100C6000FBE70448FAE7C0460010024010110008F4
:100C70000011000800127A0000093D00F7B50400D9
:100C80000E00002801D10120FEBD0122374D2B6846
:100C900013408B421CD32268930722D4D2072FD44F
:100CA00001232A681A40B24251D82368304D5B07AD
:100CB00054D4FFF7BDFF6B682E4A1B061B0FD35C95
:100CC0002D49D8400860032000F05CF80020DBE7E5
:100CD0002B6893430B432B602B6813408B42D2D17C
:100CE000D9E72349530704D5E0234868DB000343D1
:100CF0004B60F0204B688343A06803434B60CDE713
:100D00001B4F62683B68012A19D19B03BBD50321A5
:100D10007B688B4313437B6000F074F801900C23D5
:100D20007A681A4063689B009A42B9D000F06AF86A
:100D3000019BC01A114B9842F1D90320A4E7022A63
:100D400002D19B01E3D49EE79B07E0D49BE72A688E
:100D50009A432A602A681A42A7D094E76B68084A27
:100D60001340E26813436B60A3E7C04600200240D3
:100D700000100240201100081C0000208813000011
:100D8000FFF8FFFF70B50500FA200D4B80001978C1
:100D9000FFF7BAF90B4C01002068FFF7B5F900F036
:100DA00031F904000120002C09D1032D07D80238A5
:100DB0002200290000F0FCF82000034B1D6070BDEC
:100DC000140000201C000020180000201023064AF8
:100DD00010B5116803200B431360FFF7D3FFFFF733
:100DE00011FD002010BDC04600200240034A044B04
:100DF00011681B785B1813607047C0467C000020A8
:100E000014000020014B18687047C0467C00002089
:100E100070B50400FFF7F6FF0500631C02D0044B19
:100E20001B78E418FFF7EEFF401BA042FAD370BD19
:100E3000140000200023F0B587B00A681400DC40DD
:100E400001D107B0F0BD012514009D402C40009455
:100E50002A4200D198E04A685F0094460322644623
:100E600022400324BC40E4430194541E012C2ED89C
:100E70008668019C2640CC68BC403443846044684A
:100E80000126AC4325006446240934409C402C4391
:100E90004460C568019C25408C68BC402C43C460FC
:100EA000022A16D107250F261D40AD00AE40DC08F2
:100EB000A40004190294246A03962600039CA64306
:100EC00034000E69AE402643029C266201E0032AEC
:100ED000DFD1BA400468019D25402A43C024026046
:100EE0006246A40222424FD00125284A90279469E5
:100EF000FF052C43946192699C082A400592059A4B
:100F0000234AA400A4180F2202351D40AD00AA40B8
:100F1000A66896430022B8420CD01E4F0132B84258
:100F200008D01D4F0132B84204D01C4F0332B842E2
:100F300000D1023AAA4067463243A260184A009C98
:100F40009668009DE4433543FF0201D435002540F7
:100F500067469560D668009D3543BF0201D43500D1
:100F600025406746D5605668009D3543BF0301D4D0
:100F700035002540674655601568009E2E43FF03E7
:100F800001D425402E001660013356E700100240C0
:100F9000000001400004004800080048000C004820
:100FA00000040140002A01D0816170478162FCE7A2
:100FB00010B5FF2403220B0021000240D200914013
:100FC0009B012340C943934000280ADBC0240B4AFD
:100FD000800880008018A40002590A40134303517E
:100FE00010BD0F2210400838054A80088000801884
:100FF000C26911401943C161F2E7C04600E100E057
:1010000000ED00E08022431E5204012093420DD2E5
:10101000C021074A07485360036A09061B021B0ADE
:101020000B43036200200723906013607047C046A3
:1010300010E000E000ED00E0704700000D4885463C
:10104000FFF7FAFF0C480D490D4A002302E0D4587F
:10105000C4500433C4188C42F9D30A4A0A4C002302
:1010600001E013600432A242FBD300F019F8FFF74D
:1010700043FBFEE7002000200000002020000020AD
:10108000401100082000002080000020FEE703003F
:101090008218934200D1704719700133F9E70000BC
:1010A00070B500260C4C0D4D641BA410A64209D14E
:1010B000002600F019F80A4C0A4D641BA410A64241
:1010C00005D170BDB300EB5898470136EEE7B30089
:1010D000EB5898470136F2E738110008381100083C
:1010E0003C11000838110008F8B5C046F8BC08BC2F
:1010F0009E467047F8B5C046F8BC08BC9E4670478F
:101100000102030405060708090A0B0C0D0E0F1057
:1011100002030405060708090A0B0C0D0E0F101038
:101120000000000000000000010203040607080997
:0811300024F2FF7F0100000022
:04113800E9000008C2
:04113C00C1000008E6
:1011400080000000A0000000C0000000E0000000DF
:1011500000010000010000000400000000127A00FD
:040000050800103DA2
:00000001FF
